{"abi":[{"type":"constructor","inputs":[{"name":"_policyModule","type":"address","internalType":"address"},{"name":"_venueAdapter","type":"address","internalType":"address"}],"stateMutability":"nonpayable"},{"type":"function","name":"executeIntent","inputs":[{"name":"intent","type":"tuple","internalType":"struct IOMAAccount.Intent","components":[{"name":"user","type":"address","internalType":"address"},{"name":"assetIn","type":"address","internalType":"address"},{"name":"assetOut","type":"address","internalType":"address"},{"name":"amountIn","type":"uint256","internalType":"uint256"},{"name":"amountOutMin","type":"uint256","internalType":"uint256"},{"name":"venue","type":"string","internalType":"string"},{"name":"deadline","type":"uint256","internalType":"uint256"},{"name":"nonce","type":"uint256","internalType":"uint256"}]},{"name":"signature","type":"bytes","internalType":"bytes"}],"outputs":[{"name":"","type":"uint256","internalType":"uint256"}],"stateMutability":"nonpayable"},{"type":"function","name":"getIntentDigest","inputs":[{"name":"intent","type":"tuple","internalType":"struct IOMAAccount.Intent","components":[{"name":"user","type":"address","internalType":"address"},{"name":"assetIn","type":"address","internalType":"address"},{"name":"assetOut","type":"address","internalType":"address"},{"name":"amountIn","type":"uint256","internalType":"uint256"},{"name":"amountOutMin","type":"uint256","internalType":"uint256"},{"name":"venue","type":"string","internalType":"string"},{"name":"deadline","type":"uint256","internalType":"uint256"},{"name":"nonce","type":"uint256","internalType":"uint256"}]}],"outputs":[{"name":"","type":"bytes32","internalType":"bytes32"}],"stateMutability":"view"},{"type":"function","name":"getIntentHash","inputs":[{"name":"intent","type":"tuple","internalType":"struct IOMAAccount.Intent","components":[{"name":"user","type":"address","internalType":"address"},{"name":"assetIn","type":"address","internalType":"address"},{"name":"assetOut","type":"address","internalType":"address"},{"name":"amountIn","type":"uint256","internalType":"uint256"},{"name":"amountOutMin","type":"uint256","internalType":"uint256"},{"name":"venue","type":"string","internalType":"string"},{"name":"deadline","type":"uint256","internalType":"uint256"},{"name":"nonce","type":"uint256","internalType":"uint256"}]}],"outputs":[{"name":"","type":"bytes32","internalType":"bytes32"}],"stateMutability":"pure"},{"type":"function","name":"policyModule","inputs":[],"outputs":[{"name":"","type":"address","internalType":"contract IPolicyModule"}],"stateMutability":"view"},{"type":"function","name":"usedNonces","inputs":[{"name":"","type":"address","internalType":"address"},{"name":"","type":"uint256","internalType":"uint256"}],"outputs":[{"name":"","type":"bool","internalType":"bool"}],"stateMutability":"view"},{"type":"function","name":"venueAdapter","inputs":[],"outputs":[{"name":"","type":"address","internalType":"contract IVenueAdapter"}],"stateMutability":"view"},{"type":"function","name":"verifySignature","inputs":[{"name":"intent","type":"tuple","internalType":"struct IOMAAccount.Intent","components":[{"name":"user","type":"address","internalType":"address"},{"name":"assetIn","type":"address","internalType":"address"},{"name":"assetOut","type":"address","internalType":"address"},{"name":"amountIn","type":"uint256","internalType":"uint256"},{"name":"amountOutMin","type":"uint256","internalType":"uint256"},{"name":"venue","type":"string","internalType":"string"},{"name":"deadline","type":"uint256","internalType":"uint256"},{"name":"nonce","type":"uint256","internalType":"uint256"}]},{"name":"signature","type":"bytes","internalType":"bytes"}],"outputs":[{"name":"","type":"bool","internalType":"bool"}],"stateMutability":"view"},{"type":"event","name":"IntentExecuted","inputs":[{"name":"intentId","type":"bytes32","indexed":true,"internalType":"bytes32"},{"name":"amountOut","type":"uint256","indexed":false,"internalType":"uint256"}],"anonymous":false},{"type":"event","name":"IntentSubmitted","inputs":[{"name":"intentId","type":"bytes32","indexed":true,"internalType":"bytes32"},{"name":"user","type":"address","indexed":true,"internalType":"address"},{"name":"intent","type":"tuple","indexed":false,"internalType":"struct IOMAAccount.Intent","components":[{"name":"user","type":"address","internalType":"address"},{"name":"assetIn","type":"address","internalType":"address"},{"name":"assetOut","type":"address","internalType":"address"},{"name":"amountIn","type":"uint256","internalType":"uint256"},{"name":"amountOutMin","type":"uint256","internalType":"uint256"},{"name":"venue","type":"string","internalType":"string"},{"name":"deadline","type":"uint256","internalType":"uint256"},{"name":"nonce","type":"uint256","internalType":"uint256"}]}],"anonymous":false},{"type":"event","name":"PolicyCheckFailed","inputs":[{"name":"intentId","type":"bytes32","indexed":true,"internalType":"bytes32"},{"name":"policyName","type":"string","indexed":false,"internalType":"string"},{"name":"reason","type":"string","indexed":false,"internalType":"string"}],"anonymous":false},{"type":"event","name":"PolicyCheckPassed","inputs":[{"name":"intentId","type":"bytes32","indexed":true,"internalType":"bytes32"},{"name":"policyName","type":"string","indexed":false,"internalType":"string"}],"anonymous":false},{"type":"error","name":"DeadlineExpired","inputs":[{"name":"deadline","type":"uint256","internalType":"uint256"},{"name":"currentTime","type":"uint256","internalType":"uint256"}]},{"type":"error","name":"InsufficientOutput","inputs":[{"name":"expected","type":"uint256","internalType":"uint256"},{"name":"actual","type":"uint256","internalType":"uint256"}]},{"type":"error","name":"InvalidSignature","inputs":[]},{"type":"error","name":"NonceAlreadyUsed","inputs":[{"name":"user","type":"address","internalType":"address"},{"name":"nonce","type":"uint256","internalType":"uint256"}]},{"type":"error","name":"PolicyFailed","inputs":[{"name":"policyName","type":"string","internalType":"string"},{"name":"reason","type":"string","internalType":"string"}]}],"bytecode":{"object":"0x60a060405234801561000f575f80fd5b506040516110d53803806110d583398101604081905261002e91610156565b5f80546001600160a01b038481166001600160a01b0319928316179092556001805492841692909116919091178155604080518082018252600a81526913d3505058d8dbdd5b9d60b21b60209182015281518083018352928352603160f81b9281019290925280517f8b73c3c69bb8fe3d512ecc4cf759cc79239f7b179b0ffacaa9a75d522b39400f928101929092527fefc906d14709a3210b79a355016a38bcd75c89d452558c0fe91bfb08b9ef1f5e908201527fc89efdaa54c0f20c7adf612882df0950f5a951637e0307cdcb4c672f298b8bc660608201524660808201523060a082015260c00160408051601f198184030181529190528051602090910120608052506101879050565b80516001600160a01b0381168114610151575f80fd5b919050565b5f8060408385031215610167575f80fd5b6101708361013b565b915061017e6020840161013b565b90509250929050565b608051610f2f6101a65f395f81816104e901526106230152610f2f5ff3fe608060405234801561000f575f80fd5b506004361061007a575f3560e01c80636a8a6894116100585780636a8a6894146100e25780637fed16f81461011f5780638900ed2414610132578063893866f714610145575f80fd5b806304172a821461007e5780633900f9ab146100a45780635cc08b2a146100cf575b5f80fd5b61009161008c366004610a9b565b610157565b6040519081526020015b60405180910390f35b6001546100b7906001600160a01b031681565b6040516001600160a01b03909116815260200161009b565b6100916100dd366004610b2a565b610429565b61010f6100f0366004610b7f565b600260209081525f928352604080842090915290825290205460ff1681565b604051901515815260200161009b565b61009161012d366004610b2a565b610534565b61010f610140366004610a9b565b610563565b5f546100b7906001600160a01b031681565b5f8061016285610534565b90506101716020860186610ba7565b6001600160a01b0316817f6218f5255b6b13d5e853fe151cb91e1622b10c8d55c6270c9c61dd6e59fbf2d1876040516101aa9190610c31565b60405180910390a38460c001354211156101e8576040516302a07ebf60e31b815260c086013560048201524260248201526044015b60405180910390fd5b60025f6101f86020880188610ba7565b6001600160a01b0316815260208082019290925260409081015f90812060e0890135825290925290205460ff1615610266576102376020860186610ba7565b604051633a42b7b560e21b81526001600160a01b03909116600482015260e086013560248201526044016101df565b610271858585610563565b61028e57604051638baa579f60e01b815260040160405180910390fd5b600160025f6102a06020890189610ba7565b6001600160a01b0316815260208082019290925260409081015f90812060e08a013582529092529020805460ff19169115159190911790556102e28186610718565b6001545f906001600160a01b03166336ea19386103056040890160208a01610ba7565b61031560608a0160408b01610ba7565b60608a013560808b013561032c60208d018d610ba7565b60405160e087901b6001600160e01b03191681526001600160a01b039586166004820152938516602485015260448401929092526064830152909116608482015260a4016020604051808303815f875af115801561038c573d5f803e3d5ffd5b505050506040513d601f19601f820116820180604052508101906103b09190610cd8565b905085608001358110156103e457604051630583371760e31b815260808701356004820152602481018290526044016101df565b817f40f1866bacf1529a154953f540356cd503ab648a69a16d45e16ce6f247ec18888260405161041691815260200190565b60405180910390a29150505b9392505050565b5f807f5219a54ac87794f1c5502a6c260a720f2bda5ebdeaf93aaf9f262e55aba1ab256104596020850185610ba7565b6104696040860160208701610ba7565b6104796060870160408801610ba7565b6060870135608088013561049060a08a018a610cef565b60405161049e929190610d32565b6040519081900381206104c59796959493929160c08c01359060e08d013590602001610d41565b60408051808303601f19018152828252805160209182012061190160f01b828501527f0000000000000000000000000000000000000000000000000000000000000000602285015260428085019190915282518085039091018152606290930190915281519101209392505050565b5f816040516020016105469190610c31565b604051602081830303815290604052805190602001209050919050565b5f807f5219a54ac87794f1c5502a6c260a720f2bda5ebdeaf93aaf9f262e55aba1ab256105936020870187610ba7565b6105a36040880160208901610ba7565b6105b36060890160408a01610ba7565b606089013560808a01356105ca60a08c018c610cef565b6040516105d8929190610d32565b6040519081900381206105ff9796959493929160c08e01359060e08f013590602001610d41565b60408051808303601f19018152828252805160209182012061190160f01b828501527f00000000000000000000000000000000000000000000000000000000000000006022850152604280850182905283518086039091018152606290940190925282519201919091209091506041841461067e575f92505050610422565b8435602086013560408701355f1a601b8110156106a3576106a0601b82610d8f565b90505b604080515f8082526020820180845287905260ff841692820192909252606081018590526080810184905260019060a0016020604051602081039080840390855afa1580156106f4573d5f803e3d5ffd5b5050604051601f1901516001600160a01b031615159b9a5050505050505050505050565b5f546001600160a01b031663379d49c561073560a0840184610cef565b6040518363ffffffff1660e01b8152600401610752929190610dba565b602060405180830381865afa15801561076d573d5f803e3d5ffd5b505050506040513d601f19601f820116820180604052508101906107919190610dcd565b61081557604080518082018252601681527515995b9d59481b9bdd081a5b88185b1b1bdddb1a5cdd60521b6020820152905183907f63b9c62bf0a89c1c9e7af702707e1da25d5ede660b78de5edd0bb4faa2920993906107f2908490610e2f565b60405180910390a28060405163535f104160e11b81526004016101df9190610e2f565b817fc6ff139e6bcec060ae355e0d748e68d5aa56b8b59dd904b91c9699cf49b1a57160405161084390610e6f565b60405180910390a25f546001600160a01b0316639469bf8f61086b6040840160208501610ba7565b6040516001600160e01b031960e084901b1681526001600160a01b039091166004820152602401602060405180830381865afa1580156108ad573d5f803e3d5ffd5b505050506040513d601f19601f820116820180604052508101906108d19190610dcd565b61095c57604080518082018252601981527f417373657420696e206e6f7420696e20616c6c6f776c697374000000000000006020820152905183907f63b9c62bf0a89c1c9e7af702707e1da25d5ede660b78de5edd0bb4faa292099390610939908490610e9d565b60405180910390a28060405163535f104160e11b81526004016101df9190610e9d565b5f546001600160a01b0316639469bf8f61097c6060840160408501610ba7565b6040516001600160e01b031960e084901b1681526001600160a01b039091166004820152602401602060405180830381865afa1580156109be573d5f803e3d5ffd5b505050506040513d601f19601f820116820180604052508101906109e29190610dcd565b610a4a57604080518082018252601a81527f4173736574206f7574206e6f7420696e20616c6c6f776c6973740000000000006020820152905183907f63b9c62bf0a89c1c9e7af702707e1da25d5ede660b78de5edd0bb4faa292099390610939908490610e9d565b817fc6ff139e6bcec060ae355e0d748e68d5aa56b8b59dd904b91c9699cf49b1a571604051610a7890610ecb565b60405180910390a25050565b5f6101008284031215610a95575f80fd5b50919050565b5f805f60408486031215610aad575f80fd5b833567ffffffffffffffff80821115610ac4575f80fd5b610ad087838801610a84565b94506020860135915080821115610ae5575f80fd5b818601915086601f830112610af8575f80fd5b813581811115610b06575f80fd5b876020828501011115610b17575f80fd5b6020830194508093505050509250925092565b5f60208284031215610b3a575f80fd5b813567ffffffffffffffff811115610b50575f80fd5b610b5c84828501610a84565b949350505050565b80356001600160a01b0381168114610b7a575f80fd5b919050565b5f8060408385031215610b90575f80fd5b610b9983610b64565b946020939093013593505050565b5f60208284031215610bb7575f80fd5b61042282610b64565b5f808335601e19843603018112610bd5575f80fd5b830160208101925035905067ffffffffffffffff811115610bf4575f80fd5b803603821315610c02575f80fd5b9250929050565b81835281816020850137505f828201602090810191909152601f909101601f19169091010190565b602081525f6001600160a01b0380610c4885610b64565b16602084015280610c5b60208601610b64565b16604084015250610c6e60408401610b64565b6001600160a01b03811660608401525060608301356080830152608083013560a0830152610c9f60a0840184610bc0565b6101008060c0860152610cb761012086018385610c09565b925060c086013560e086015260e08601358186015250508091505092915050565b5f60208284031215610ce8575f80fd5b5051919050565b5f808335601e19843603018112610d04575f80fd5b83018035915067ffffffffffffffff821115610d1e575f80fd5b602001915036819003821315610c02575f80fd5b818382375f9101908152919050565b9889526001600160a01b0397881660208a01529587166040890152939095166060870152608086019190915260a085015260c084019290925260e08301919091526101008201526101200190565b60ff8181168382160190811115610db457634e487b7160e01b5f52601160045260245ffd5b92915050565b602081525f610b5c602083018486610c09565b5f60208284031215610ddd575f80fd5b81518015158114610422575f80fd5b5f81518084525f5b81811015610e1057602081850181015186830182015201610df4565b505f602082860101526020601f19601f83011685010191505092915050565b604081525f610e5d60408301600f81526e1d995b9d5957d85b1b1bdddb1a5cdd608a1b602082015260400190565b8281036020840152610b5c8185610dec565b602081525f610db460208301600f81526e1d995b9d5957d85b1b1bdddb1a5cdd608a1b602082015260400190565b604081525f610e5d60408301600f81526e185cdcd95d17d85b1b1bdddb1a5cdd608a1b602082015260400190565b602081525f610db460208301600f81526e185cdcd95d17d85b1b1bdddb1a5cdd608a1b60208201526040019056fea264697066735822122015635a4c5132cf176459bdc096ac1df5bf38cadaf3139c4b2630c3794b29cccf64736f6c63430008140033","linkReferences":{}},"methodIdentifiers":{"executeIntent((address,address,address,uint256,uint256,string,uint256,uint256),bytes)":"04172a82","getIntentDigest((address,address,address,uint256,uint256,string,uint256,uint256))":"5cc08b2a","getIntentHash((address,address,address,uint256,uint256,string,uint256,uint256))":"7fed16f8","policyModule()":"893866f7","usedNonces(address,uint256)":"6a8a6894","venueAdapter()":"3900f9ab","verifySignature((address,address,address,uint256,uint256,string,uint256,uint256),bytes)":"8900ed24"},"id":16}