{"abi":[{"type":"function","name":"executeTrade","inputs":[{"name":"assetIn","type":"address","internalType":"address"},{"name":"assetOut","type":"address","internalType":"address"},{"name":"amountIn","type":"uint256","internalType":"uint256"},{"name":"minAmountOut","type":"uint256","internalType":"uint256"},{"name":"recipient","type":"address","internalType":"address"}],"outputs":[{"name":"amountOut","type":"uint256","internalType":"uint256"}],"stateMutability":"nonpayable"},{"type":"function","name":"getQuote","inputs":[{"name":"assetIn","type":"address","internalType":"address"},{"name":"assetOut","type":"address","internalType":"address"},{"name":"amountIn","type":"uint256","internalType":"uint256"}],"outputs":[{"name":"amountOut","type":"uint256","internalType":"uint256"}],"stateMutability":"pure"},{"type":"function","name":"venueName","inputs":[],"outputs":[{"name":"","type":"string","internalType":"string"}],"stateMutability":"pure"},{"type":"event","name":"TradeExecuted","inputs":[{"name":"assetIn","type":"address","indexed":true,"internalType":"address"},{"name":"assetOut","type":"address","indexed":true,"internalType":"address"},{"name":"amountIn","type":"uint256","indexed":false,"internalType":"uint256"},{"name":"amountOut","type":"uint256","indexed":false,"internalType":"uint256"},{"name":"recipient","type":"address","indexed":true,"internalType":"address"},{"name":"timestamp","type":"uint256","indexed":false,"internalType":"uint256"}],"anonymous":false},{"type":"error","name":"InsufficientOutput","inputs":[{"name":"expected","type":"uint256","internalType":"uint256"},{"name":"actual","type":"uint256","internalType":"uint256"}]}],"bytecode":{"object":"0x608060405234801561000f575f80fd5b506102f38061001d5f395ff3fe608060405234801561000f575f80fd5b506004361061003f575f3560e01c806336ea193814610043578063c515ee2314610069578063f722ba5a1461007c575b5f80fd5b61005661005136600461019e565b6100a7565b6040519081526020015b60405180910390f35b6100566100773660046101f1565b610163565b60408051808201825260098152684d6f636b56656e756560b81b60208201529051610060919061022a565b5f60646100b5605f86610275565b6100bf919061029e565b9050828110156100f057604051630583371760e31b8152600481018490526024810182905260440160405180910390fd5b816001600160a01b0316856001600160a01b0316876001600160a01b03167f6868fb4662923f2efbfc2167b39761008d9f9b9a24f13434b8f49efa5ec3df19878542604051610152939291909283526020830191909152604082015260600190565b60405180910390a495945050505050565b5f6064610171605f84610275565b61017b919061029e565b949350505050565b80356001600160a01b0381168114610199575f80fd5b919050565b5f805f805f60a086880312156101b2575f80fd5b6101bb86610183565b94506101c960208701610183565b935060408601359250606086013591506101e560808701610183565b90509295509295909350565b5f805f60608486031215610203575f80fd5b61020c84610183565b925061021a60208501610183565b9150604084013590509250925092565b5f6020808352835180828501525f5b8181101561025557858101830151858201604001528201610239565b505f604082860101526040601f19601f8301168501019250505092915050565b808202811582820484141761029857634e487b7160e01b5f52601160045260245ffd5b92915050565b5f826102b857634e487b7160e01b5f52601260045260245ffd5b50049056fea264697066735822122025b57949d23e215931bcf2e74e2d084a6c69bd484b6b00de8a771d673fe7ba6864736f6c63430008140033","linkReferences":{}},"methodIdentifiers":{"executeTrade(address,address,uint256,uint256,address)":"36ea1938","getQuote(address,address,uint256)":"c515ee23","venueName()":"f722ba5a"},"id":18}