{"abi":[{"type":"constructor","inputs":[{"name":"_admin","type":"address","internalType":"address"}],"stateMutability":"nonpayable"},{"type":"function","name":"addAsset","inputs":[{"name":"asset","type":"address","internalType":"address"}],"outputs":[],"stateMutability":"nonpayable"},{"type":"function","name":"addVenue","inputs":[{"name":"venue","type":"string","internalType":"string"}],"outputs":[],"stateMutability":"nonpayable"},{"type":"function","name":"admin","inputs":[],"outputs":[{"name":"","type":"address","internalType":"address"}],"stateMutability":"view"},{"type":"function","name":"isAssetAllowed","inputs":[{"name":"asset","type":"address","internalType":"address"}],"outputs":[{"name":"","type":"bool","internalType":"bool"}],"stateMutability":"view"},{"type":"function","name":"isVenueAllowed","inputs":[{"name":"venue","type":"string","internalType":"string"}],"outputs":[{"name":"","type":"bool","internalType":"bool"}],"stateMutability":"view"},{"type":"function","name":"removeAsset","inputs":[{"name":"asset","type":"address","internalType":"address"}],"outputs":[],"stateMutability":"nonpayable"},{"type":"function","name":"removeVenue","inputs":[{"name":"venue","type":"string","internalType":"string"}],"outputs":[],"stateMutability":"nonpayable"},{"type":"function","name":"updateAdmin","inputs":[{"name":"newAdmin","type":"address","internalType":"address"}],"outputs":[],"stateMutability":"nonpayable"},{"type":"event","name":"AssetUpdated","inputs":[{"name":"asset","type":"address","indexed":false,"internalType":"address"},{"name":"allowed","type":"bool","indexed":false,"internalType":"bool"}],"anonymous":false},{"type":"event","name":"VenueUpdated","inputs":[{"name":"venue","type":"string","indexed":false,"internalType":"string"},{"name":"allowed","type":"bool","indexed":false,"internalType":"bool"}],"anonymous":false},{"type":"error","name":"OnlyAdmin","inputs":[]}],"bytecode":{"object":"0x608060405234801561000f575f80fd5b506040516105b73803806105b783398101604081905261002e91610052565b5f80546001600160a01b0319166001600160a01b039290921691909117905561007f565b5f60208284031215610062575f80fd5b81516001600160a01b0381168114610078575f80fd5b9392505050565b61052b8061008c5f395ff3fe608060405234801561000f575f80fd5b5060043610610085575f3560e01c80639469bf8f116100585780639469bf8f146100ec578063c6e429ce14610117578063e2f273bd1461012a578063f851a4401461013d575f80fd5b806302ee93c814610089578063298410e51461009e578063379d49c5146100b15780634a5e42b1146100d9575b5f80fd5b61009c610097366004610416565b610167565b005b61009c6100ac366004610482565b610203565b6100c46100bf366004610416565b61028e565b60405190151581526020015b60405180910390f35b61009c6100e7366004610482565b6102bc565b6100c46100fa366004610482565b6001600160a01b03165f9081526002602052604090205460ff1690565b61009c610125366004610416565b61033c565b61009c610138366004610482565b6103cb565b5f5461014f906001600160a01b031681565b6040516001600160a01b0390911681526020016100d0565b5f546001600160a01b0316331461019157604051634755657960e01b815260040160405180910390fd5b60018083836040516101a49291906104af565b908152604051908190036020018120805492151560ff19909316929092179091557fc4dafb17b69c46ed61e4e63c1786daa5f9cdc4f9039ea205fa257c6a91ec8d5d906101f790849084906001906104be565b60405180910390a15050565b5f546001600160a01b0316331461022d57604051634755657960e01b815260040160405180910390fd5b6001600160a01b0381165f81815260026020908152604091829020805460ff191660019081179091558251938452908301527f95628235d53bc7f781b963e7485111be10cb1c1ec822b59edb63ae817873835891015b60405180910390a150565b5f600183836040516102a19291906104af565b9081526040519081900360200190205460ff16905092915050565b5f546001600160a01b031633146102e657604051634755657960e01b815260040160405180910390fd5b6001600160a01b0381165f818152600260209081526040808320805460ff191690558051938452908301919091527f95628235d53bc7f781b963e7485111be10cb1c1ec822b59edb63ae81787383589101610283565b5f546001600160a01b0316331461036657604051634755657960e01b815260040160405180910390fd5b5f600183836040516103799291906104af565b908152604051908190036020018120805492151560ff19909316929092179091557fc4dafb17b69c46ed61e4e63c1786daa5f9cdc4f9039ea205fa257c6a91ec8d5d906101f790849084905f906104be565b5f546001600160a01b031633146103f557604051634755657960e01b815260040160405180910390fd5b5f80546001600160a01b0319166001600160a01b0392909216919091179055565b5f8060208385031215610427575f80fd5b823567ffffffffffffffff8082111561043e575f80fd5b818501915085601f830112610451575f80fd5b81358181111561045f575f80fd5b866020828501011115610470575f80fd5b60209290920196919550909350505050565b5f60208284031215610492575f80fd5b81356001600160a01b03811681146104a8575f80fd5b9392505050565b818382375f9101908152919050565b60408152826040820152828460608301375f60608483018101919091529115156020820152601f909201601f19169091010191905056fea2646970667358221220a8fb67a94d67bd60c45d88ee61640e22dba894cd79f5d60622b10e7400b01b4564736f6c63430008140033","linkReferences":{}},"methodIdentifiers":{"addAsset(address)":"298410e5","addVenue(string)":"02ee93c8","admin()":"f851a440","isAssetAllowed(address)":"9469bf8f","isVenueAllowed(string)":"379d49c5","removeAsset(address)":"4a5e42b1","removeVenue(string)":"c6e429ce","updateAdmin(address)":"e2f273bd"},"id":17}